:1000000038C100000C94B91B0C94E41B0C940F1C19
:100010000C943A1C0C94651C0C94901C0C94BB1C06
:100020000C94E61C57C1000055C1000053C10000EC
:1000300051C100000C941C1B4DC100004BC10000BD
:1000400049C1000047C1000045C1000043C1000094
:1000500041C100003FC100003DC100000C94111DD2
:1000600039C100000C9453200C94892033C1000046
:1000700031C100002FC100002DC100002BC10000C4
:1000800029C1000027C1000025C1000023C10000D4
:1000900021C100001FC100001DC100000C94F70F1A
:1000A00019C1000017C1000015C1000013C10000F4
:1000B00011C100000FC100000DC100000BC1000004
:1000C00009C1000007C1000005C1000003C1000014
:1000D00001C10000FFC00000FDC00000FBC0000027
:1000E000F9C00000931B5D1B651B711B7E1B9F1BD2
:1000F000AC1B3B1E3E1E2D1E311E371E751E421EA2
:10010000461E4C1E501E541E5A1E5E1E621E751E3A
:10011000681E6C1E701E084AD73B3BCE016E84BC25
:10012000BFFDC12F3D6C74319ABD56833DDA3D0051
:10013000C77F11BED9E4BB4C3E916BAAAABE00009A
:1001400000803F0000000A0B02090C0D0E08070397
:10015000040100000000000000000000000000009A
:10016000000000000000000000000000000000008F
:10017000121110000000000000000000000000004C
:100180000000000000000000000001021020200814
:1001900008102040102040800201020108040201E2
:1001A0000102040810204080804020100804020151
:1001B00080040201804020100804020108040201AA
:1001C0000102040810204080010204081020408031
:1001D00005050505070508080808020202020A0AC3
:1001E00008080404040401010101010101010303E1
:1001F000030303030303040707070C0C0C0C0C0C8C
:100200000C0C0202020206060606060606060B0B88
:100210000B0B0B0B0B0B000020002300260029000A
:100220002C002F003200000100000301060109012B
:1002300000002200250028002B002E003100340091
:1002400002010000050108010B010000210024004B
:1002500027002A002D0030003300010100000401B6
:1002600007010A0182090E0F25112E1116124B14D7
:10027000BB2011241FBECFEFD1E2DEBFCDBF00E017
:100280000CBF12E0A0E0B2E0E0E1FEE400E00BBF52
:1002900002C007900D92AA36B107D9F72FE0AAE65F
:1002A000B2E001C01D92AC33B207E1F712E0C2E741
:1002B000D2E000E006C022970109FE010BBF0E94B8
:1002C000DB25C436D10780E00807A9F70E94D822B1
:1002D0000C94062795CE8091C50A9091C60AA091EC
:1002E000C70AB091C80A0196A11DB11D8093C50A25
:1002F0009093C60AA093C70AB093C80A08959C01B8
:10030000FC01EE52F84F80819181680F791F613DA9
:1003100047E0740730F4718360830296820F931F65
:10032000089580E090E008950F931F93CF93DF939B
:100330000EEC1AE0C0E0D0E08AE090E00E94E422F7
:10034000D80111969C938E93FC01D183C0831782B0
:100350001682ED91FD918D01118610862196C7338D
:10036000D10551F74EEC5AE020E030E080E090E01B
:10037000FC01EE0FFF1FE40FF51F0190F081E02D4F
:10038000938382833583248301968530910581F799
:100390002F5F3F4F465F5F4F2B30310539F7DF91BD
:1003A000CF911F910F910895FF920F931F93CF93B9
:1003B000DF938C01EB01F42E8E819F81892B69F4F0
:1003C00085E090E00E94E422FC0111830083148206
:1003D0001382F2829F838E8310C085E090E00E949A
:1003E000E422FC011183008314821382F282A88527
:1003F000B98514969C938E931397F987E887CF015C
:10040000DF91CF911F910F91FF900895CF93DF93CC
:10041000CEECDAE06881798145E481E090E0C4DFE8
:10042000688179814EE485E090E0BEDFC0EDDAE0DE
:100430006881798147E580E090E0B6DF6881798165
:100440004EE486E090E0B0DFC2EDDAE068817981C9
:1004500045E483E090E0A8DF688179814EE487E09D
:1004600090E0A2DFC4EDDAE06881798147E582E0BF
:1004700090E09ADF688179814EE484E090E094DF37
:100480006881798145E488E090E08EDFC6EDDAE0AE
:100490006881798147E583E090E086DF6881798132
:1004A0004EE489E090E080DFC8EDDAE06881798190
:1004B00045E486E090E078DF6881798143E580E07B
:1004C00090E072DF688179814EE48AE090E06CDF31
:1004D000CAEDDAE06881798147E585E090E064DF84
:1004E0006881798145E487E090E05EDF6881798109
:1004F00043E581E090E058DF688179814EE48BE04C
:1005000090E052DFCCEDDAE06881798147E586E062
:1005100090E04ADF6881798145E488E090E044DF3B
:100520006881798143E582E090E03EDF68817981EE
:100530004EE48CE090E038DFCEEDDAE0688179813E
:1005400045E489E090E030DF6881798147E587E024
:1005500090E02ADF6881798143E583E090E024DF41
:10056000688179814EE48DE090E01EDFC0EEDAE034
:100570006881798147E588E090E016DF68817981BC
:1005800043E584E090E010DF688179814EE48EE0FD
:1005900090E00ADFC2EEDAE06881798145E48BE021
:1005A00090E002DF6881798143E585E090E0FCDE40
:1005B000688179814EE48FE090E0F6DEC4EEDAE007
:1005C0006881798147E58AE090E0EEDE6881798193
:1005D00043E586E090E0E8DE688179814EE480E1E1
:1005E00090E0E2DEC6EEDAE06881798145E48DE0F4
:1005F00090E0DADE6881798143E587E090E0D4DE3F
:10060000C8EEDAE06881798147E58CE090E0CCDEE5
:100610006881798145E48EE090E0C6DE6881798169
:1006200043E588E090E0C0DE688179814EE482E1B4
:1006300090E0BADECAEEDAE06881798147E58DE0C4
:1006400090E0B2DE6881798143E589E090E0ACDE3C
:10065000CCEEDAE06881798145E480E190E0A4DEC7
:100660006881798143E58AE090E09EDE6881798146
:100670004EE484E190E098DECEEEDAE068817981A4
:1006800047E58FE090E090DE6881798145E481E183
:1006900090E08ADE6881798143E58BE090E084DE3A
:1006A000C0EFDAE06881798147E580E190E07CDEA7
:1006B0006881798145E482E190E076DEC2EFDAE09C
:1006C0006881798145E483E190E06EDE688179811B
:1006D00047E581E190E068DE6881798143E58DE05E
:1006E00090E062DE688179814EE487E190E05CDE33
:1006F000C4EFDAE06881798147E582E190E054DE79
:10070000688179814EE488E190E04EDEC6EFDAE060
:100710006881798145E485E190E046DE68817981F0
:1007200043E58FE090E040DE688179814EE489E125
:1007300090E03ADEC8EFDAE06881798147E584E14C
:1007400090E032DE6881798145E486E190E02CDE3C
:10075000688179814EE48AE190E026DECAEFDAE032
:100760006881798147E585E190E01EDE68817981C5
:100770004EE48BE190E018DECCEFDAE0688179811D
:1007800045E488E190E010DE6881798143E582E10B
:1007900090E00ADE688179814EE48CE190E004DE2D
:1007A000CEEFDAE06881798147E587E190E0FCDD12
:1007B0006881798143E583E190E0F6DDC0E0DBE02C
:1007C0006881798145E48AE190E0EEDD6881798194
:1007D00043E584E190E0E8DD688179814EE48EE1D3
:1007E00090E0E2DDC2E0DBE06881798147E589E104
:1007F00090E0DADD6881798145E48BE190E0D4DD39
:100800006881798143E585E190E0CEDD6881798179
:100810004EE48FE190E0C8DDC4E0DBE068817981DF
:1008200047E58AE190E0C0DD6881798143E586E1B2
:1008300090E0BADD688179814EE480E290E0B4DD39
:10084000C6E0DBE06881798145E48DE190E0ACDDD4
:100850006881798143E587E190E0A6DD688179814F
:100860004EE481E290E0A0DD6091080B7091090BED
:1008700047E58CE190E098DDCAE0DBE068817981B2
:1008800045E48FE190E090DD6881798143E589E17D
:1008900090E08ADD688179814EE483E290E084DD36
:1008A000CCE0DBE06881798147E58EE190E07CDD9A
:1008B0006881798145E480E290E076DD6881798124
:1008C00043E58AE190E070DDCEE0DBE0688179818C
:1008D00047E58FE190E068DD6881798143E58BE150
:1008E00090E062DDC0E1DBE06881798145E482E28D
:1008F00090E05ADD6881798143E58CE190E054DD38
:10090000688179814EE486E290E04EDDC2E1DBE071
:100910006881798147E581E290E046DD68817981EF
:100920004EE487E290E040DDC4E1DBE0688179815C
:1009300045E484E290E038DD6881798143E58EE129
:1009400090E032DD688179814EE488E290E02CDD30
:10095000C6E1DBE06881798147E583E290E024DD50
:100960006881798145E485E290E01EDD68817981C6
:100970004EE489E290E018DDC8E1DBE0688179812E
:1009800047E584E290E010DD6881798145E486E204
:1009900090E00ADDCAE1DBE06881798147E585E224
:1009A00090E002DD6881798145E487E290E0FCDC3B
:1009B0006881798143E581E290E0F6DC68817981A4
:1009C0004EE48BE290E0F0DCCCE1DBE06881798101
:1009D00047E586E290E0E8DC6881798143E582E2E0
:1009E00090E0E2DCCEE1DBE06881798145E489E2F8
:1009F00090E0DADC6881798143E583E290E0D4DC41
:100A0000688179814EE48DE290E0CEDCC0E2DBE0EB
:100A10006881798147E588E290E0C6DC6881798168
:100A200043E584E290E0C0DC688179814EE48EE2A7
:100A300090E0BADCC2E2DBE06881798145E48BE2D8
:100A400090E0B2DC688179814EE48FE290E0ACDC2A
:100A5000C4E2DBE06881798147E58AE290E0A4DCCA
:100A60006881798145E48CE290E09EDC688179813F
:100A700043E586E290E098DC688179814EE480E38A
:100A800090E092DCC6E2DBE06881798147E58BE2A9
:100A900090E08ADC688179814EE481E390E084DC37
:100AA000C8E2DBE06881798145E48EE290E07CDC9D
:100AB0006881798143E588E290E076DC688179811C
:100AC0004EE482E390E070DCCAE2DBE06881798189
:100AD00047E58DE290E068DC6881798145E48FE24A
:100AE00090E062DC6881798143E589E290E05CDC3A
:100AF000688179814EE483E390E056DCCCE2DBE070
:100B00006881798147E58EE290E04EDC68817981E9
:100B100045E480E390E048DC6881798143E58AE23E
:100B200090E042DC688179814EE484E390E03CDC33
:100B3000CEE2DBE06881798147E58FE290E034DC4A
:100B40006881798145E481E390E02EDC68817981D8
:100B500043E58BE290E028DC688179814EE485E30F
:100B600090E022DCC0E3DBE06881798147E580E347
:100B700090E01ADC6881798143E58CE290E014DC36
:100B8000688179814EE486E390E00EDCC2E3DBE02D
:100B90006881798145E483E390E006DC68817981AE
:100BA00043E58DE290E000DCC4E3DBE0688179811D
:100BB00047E582E390E0F8DB6881798143E58EE2E6
:100BC00090E0F2DBC6E3DBE06881798145E485E310
:100BD00090E0EADB6881798143E58FE290E0E4DB35
:100BE000C8E3DBE06881798147E584E390E0DCDB02
:100BF0006881798145E486E390E0D6DB688179817C
:100C000043E580E390E0D0DBCAE3DBE068817981F3
:100C100047E585E390E0C8DB6881798143E581E3BE
:100C200090E0DF91CF91C0CBFB0120E030E0421794
:100C3000530744F0619171916817790731F02F5F84
:100C40003F4FF5CF81E090E0089580E090E0089577
:100C50002F923F924F925F926F927F928F929F92CC
:100C6000AF92BF92CF92DF92EF92FF920F931F93BA
:100C7000CF93DF93CDB7DEB7CC55D1400FB6F89404
:100C8000DEBF0FBECDBF1C01C15BDE4F6883CF54FA
:100C9000D140C05BDE4F7883C055D1402A01CB5A8A
:100CA000DE4F39832883C555D140FE01E352FF4F03
:100CB0008EE6DF011D928A95E9F7DA0187E390E07D
:100CC0001D921D920197E1F79E0121593F4FC55B8F
:100CD000DE4F39832883CB54D140D101AA0FBB1FEB
:100CE000A20FB31F1D921C92318220823F0100E0AF
:100CF00010E0CF5ADE4FE883C155D140CE5ADE4FC7
:100D00007882C255D140C35BDE4F19830883CD542E
:100D1000D140812C912C80ECA82E82E1B82EF301D9
:100D2000E80DF91D20813181C901880F991FFC014F
:100D3000E253F54F0190F081E02DE680F7804FE619
:100D400050E04C0F5D1F480F591FC95ADE4F5983A1
:100D50004883C755D140E114F10409F44AC0C95A87
:100D6000DE4FA881B981C755D140CD90DC90BFEF4F
:100D7000CB1ADB0AF70180819181CA14DB049CF550
:100D8000A801CF5ADE4F6881C155D140CE5ADE4FFF
:100D90007881C255D140C55ADE4F2883CB55D1400A
:100DA000C45ADE4F3883CC55D1403EDFC55ADE4FA2
:100DB0002881CB55D140C45ADE4F3881CC55D14023
:100DC000892B89F0C75ADE4F2883C955D140C65AAE
:100DD000DE4F3883CA55D1405601CD5ADE4FF982D5
:100DE000E882C355D140D7011396ED90FC9014973B
:100DF000B2CFC35BDE4F28813981CD54D140215021
:100E00003109C35BDE4F39832883CD54D14032E0B2
:100E1000831A9108C35BDE4F28813981CD54D140BC
:100E20002F3F3F4F09F07BCFCD5ADE4FA881B981CC
:100E3000C355D1408D919C919C01220F331FE1E05D
:100E4000F0E0EC0FFD1FE20FF31FC75ADE4FB88131
:100E5000C955D140B083C65ADE4F4881CA55D140EA
:100E60004183EFE6F0E0EC0FFD1FE20FF31FB182CC
:100E7000A0820F5F1F4FD30113969C938E931297FE
:100E8000FE01E159FF4F5F018EEC882E8AE0982E1B
:100E9000E12CF12CE214F30409F45BC0A801CF5A51
:100EA000DE4F6881C155D140CE5ADE4F7881C255A0
:100EB000D140C701B9DE892B09F44BC0980140E04D
:100EC00050E080EC92E1F301E40FF51F6281738141
:100ED000660F771FFB01E253F54F0190F081E02D83
:100EE0000680F781E02DAFE6CA2ED12CCC0EDD1E98
:100EF000C60ED71E309721F1D4016D917C91A0814F
:100F0000B181C35BDE4FB983A883CD54D140DB01EF
:100F10006D917C91C35BDE4FA881B981CD54D140E6
:100F2000A617B70749F4D6016D917C916F5F7F4F8B
:100F3000681779070CF4CB010380F481E02DDACF38
:100F4000215031094250510937FFBDCFF50191833E
:100F50008083FFEFEF1AFF0A22E0A20EB11C32E0FD
:100F6000830E911C47E3E416F10409F093CF52E09D
:100F7000650E711C0633110509F0C5CEF2013297DA
:100F8000C15BDE4F2881CF54D140C05BDE4F38813A
:100F9000C055D1408FEF9FEF4191519142155305BC
:100FA00089F00196D901AA0FBB1F21E030E02C0F78
:100FB0003D1FA20FB31F2D913C91318320838633B7
:100FC000910551F79C012F5F3F4FFC01EE0FFF1F72
:100FD000E40DF51D01978E3F4FEF940731F04081EE
:100FE0005181538342833297F5CFC15BDE4FE88155
:100FF000CF54D140D201EC93C05BDE4FF881C05595
:10100000D1401196FC93CB5ADE4FA881B981C555CA
:10101000D1402D933C93C45ADE4F0FB6F894DEBFF7
:101020000FBECDBFDF91CF911F910F91FF90EF9039
:10103000DF90CF90BF90AF909F908F907F906F90F8
:101040005F904F903F902F9008951F93CF93DF9321
:10105000182F2091CB0A3091CC0AC091C90AD091A7
:10106000CA0A232BB9F42097A9F485E090E00E94E6
:10107000E422FC019093CA0A8093C90A1482138265
:10108000108321E030E0328321839093CC0A809357
:10109000CB0A23C08091CD0A1817C9F085E090E0F3
:1010A0000E94E4229C838B83E091C90AF091CA0AD2
:1010B0000380F481E02DF093CA0AE093C90A1482F8
:1010C0001382108321E030E03283218306C029811E
:1010D0003A812F5F3F4F3A8329831093CD0A1C3406
:1010E000A1F4809106028E3411F487E503C08735A0
:1010F00021F483E58093060214C0853411F48EE454
:10110000F9CF833571F485E4F5CF123551F4809130
:1011100006028E34C1F3873591F3853451F383355C
:1011200021F3DF91CF911F910895CF92DF92EF923B
:10113000FF920F931F93CF93DF93CDB7DEB7C057C6
:10114000D1090FB6F894DEBF0FBECDBF9E01215965
:101150003F4FAE014F5F5F4F7BDDE1960EAD1FADA0
:10116000E1977801EE0CFF1C81E090E08C0F9D1F51
:10117000E80EF91EC12CD12C17FD70C00115110508
:1011800009F466C0D701AC0DBD1DED91FC9111971E
:10119000EE0FFF1FE253F54F0190F081E02D6681C5
:1011A0007781CD01029761157105A9F0FC01A0813D
:1011B000B181AA0FBB1FA253B54F0D90BC91A02DBA
:1011C000FB01408151812D913C914217530719F049
:1011D00063817481E8CFFB0182818E3499F4809120
:1011E00006028E3431F0873559F0853429F48CE4C9
:1011F0002CDF86E42ADF2CC0833551F582E525DF1C
:1012000082E5F6CF873559F4809106028E3479F362
:10121000873579F3853491F38335D1F4F1CF853473
:1012200059F4809106028E3459F3873539F38534A9
:1012300001F3833569F4DBCF833551F480910602E5
:101240008E34E1F2873599F28534D1F2833589F213
:1012500001501109F2E0CF1AD1088ECFC059DF4FEB
:101260000FB6F894DEBF0FBECDBFDF91CF911F91B7
:101270000F91FF90EF90DF90CF9008959C01EEECDE
:10128000FAE080E090E0A191B19112964D915C91CD
:1012900013972417350739F414964D915C911597DF
:1012A0006417750721F001968733910561F708955A
:1012B0000F931F93CF93DF931F92CDB7DEB78901B2
:1012C0004983DCDFFC01EE0FFF1FE253F54F019075
:1012D000F081E02D0680F781E02D4981309739F0CB
:1012E0008281481721F00380F481E02DF7CF8081BF
:1012F0009181D8018D939C930F90DF91CF911F9195
:101300000F9108958AEA9AE00E94B6118FE192E067
:101310009093D7028093D6021092A90A1092A80A3D
:1013200029EC30E046E167E18AE692E00E94C51AC6
:1013300029EC30E048E169E18CE792E00E94C51AAF
:1013400029EC30E04AE16BE18EE892E00E94C51A98
:1013500029EC30E04CE16DE180EA92E00E94C51A90
:1013600029EC30E04EE16FE182EB92E00E94C51A79
:1013700029EC30E040E261E284EC92E00C94C51A82
:10138000EF92FF920F931F93CF93DF93C82F8B01A0
:101390007A0168E670E080E79BE0CFD4E091700BC3
:1013A000F091710B0190F081E02D6C2F80E79BE0B4
:1013B00019950197E9F460E080E79BE0BFD4282FFE
:1013C00030E021153105B1F421E030E0A70168E6F5
:1013D00070E080E79BE021D5E80100E010E080E7C5
:1013E0009BE003D4892B41F00E151F0574F004C057
:1013F00086EF09C0C90110C00E151F0519F480E061
:1014000090E00AC085EF9FEF07C00F5F1F4F80E796
:101410009BE0F3D38993E3CFDF91CF911F910F919D
:10142000FF90EF900895CF93DF93EC014EE050E0F2
:10143000BC018BE390E0A4DF2881398138832983C4
:101440002A813B813A832B832C813D813C832D83F0
:101450002E813F813E832F832885398538872987D0
:101460002A853B853A872B872C853D853C872D87B0
:10147000DF91CF9108952F923F924F925F926F929A
:101480007F928F929F92AF92BF92CF92DF92EF9214
:10149000FF920F931F93CF93DF93CDB7DEB76B9778
:1014A0000FB6F894DEBF0FBECDBFCE0101961C0172
:1014B000BADF0AE010E01F8A188E198E1A8E1B8A76
:1014C0001C8A1D8A1E8A1F86188A198A1A8AC12CAC
:1014D000D12C760146015701260137012B8E232C92
:1014E0008B8D922DA0DF69817A81882777FD809589
:1014F000982F0E9412249B01AC01C301B2010E94EB
:10150000E7222B013C016B817C81882777FD809548
:10151000982F0E9412249B01AC01C501B4010E94C6
:10152000E7224B015C016D817E81882777FD8095E4
:10153000982F0E9412249B01AC01C701B6010E94A2
:10154000E7226B017C0169857A85882777FD809584
:10155000982F0E9412249B01AC016F85788989899C
:101560009A890E94E7226F87788B898B9A8B6B858B
:101570007C85882777FD8095982F0E9412249B01F7
:10158000AC016B897C898D899E890E94E7226B8BD7
:101590007C8B8D8B9E8B6D857E85882777FD8095D6
:1015A000982F0E9412249B01AC016F89788D898D40
:1015B0009A8D0E94E7226F8B788F898F9A8F64E6CD
:1015C00070E080E090E00E948A1D0150110909F04E
:1015D00087CF20E030E040E251E4C301B2010E9435
:1015E00077236093500B7093510B8093520B909321
:1015F000530B20E030E040E251E4C501B4010E9409
:10160000772360934C0B70934D0B80934E0B90930C
:101610004F0B20E030E040E251E4C701B6010E94E8
:1016200077236093480B7093490B80934A0B9093F8
:101630004B0B20E030E040E251E46F8578898989E6
:101640009A890E9477236093440B7093450B809393
:10165000460B9093470B20E030E040E251E46B8969
:101660007C898D899E890E9477236093400B7093BB
:10167000410B8093420B9093430B20E030E040E21B
:1016800051E46F89788D898D9A8D0E9477236093BC
:101690003C0B70933D0B80933E0B90933F0B6B96EE
:1016A0000FB6F894DEBF0FBECDBFDF91CF911F9173
:1016B0000F91FF90EF90DF90CF90BF90AF909F90F1
:1016C0008F907F906F905F904F903F902F900895F4
:1016D0004F925F926F927F928F929F92AF92BF9242
:1016E000CF92DF92EF92FF92CF93DF93CDB7DEB729
:1016F000AA970FB6F894DEBF0FBECDBFCE010196FC
:1017000092DE0E945B1D6F87788B898B9A8B698133
:101710007A81882777FD8095982F0E9412244B01AB
:101720005C016B817C81882777FD8095982F0E94D2
:1017300012246B017C016D817E81882777FD809565
:10174000982F0E9412249B01AC010E94F2242B01CD
:101750003C01A7019601C701B6010E94F224A30132
:1017600092010E94E7220E9459259B01AC01C5010C
:10177000B40190580E9477230E944B236F8B788F7F
:10178000898F9A8FA5019401C501B4010E94F224AA
:10179000A30192010E94E7220E9459259B01AC01FE
:1017A000C701B6010E9477230E944B236B8F7C8F69
:1017B0008D8F9E8F80916C0B90916D0BA0916E0B15
:1017C000B0916F0B2F85388949895A89281B390BAD
:1017D0004A0B5B0BCA01B9010E94102420E030E0E3
:1017E0004AE754E40E9477236B017C0169857A857E
:1017F000882777FD8095982F0E9412242091440B12
:101800003091450B4091460B5091470B0E94E622C8
:1018100020E030E043E053E40E947723A7019601E3
:101820000E94F2244B015C016B857C85882777FD43
:101830008095982F0E9412242091400B3091410BEB
:101840004091420B5091430B0E94E62220E030E091
:1018500043E053E40E947723A70196010E94F224FB
:101860006B8B7C8B8D8B9E8B6D857E85882777FD22
:101870008095982F0E94122420913C0B30913D0BB3
:1018800040913E0B50913F0B0E94E62220E030E059
:1018900043E053E40E947723A70196010E94F224BB
:1018A0006B017C012091600B3091610B4091620BC8
:1018B0005091630B0E94E7222B013C0120915C0BAD
:1018C00030915D0B40915E0B50915F0BC501B401EF
:1018D0000E94E7226F8F78A389A39AA32091580BC7
:1018E0003091590B40915A0B50915B0B6B897C895D
:1018F0008D899E890E94E7226BA37CA38DA39EA362
:101900002091540B3091550B4091560B5091570B31
:10191000C701B6010E94E7226FA378A789A79AA7FB
:101920002091680B3091690B40916A0B50916B0BC1
:10193000C501B4010E94E7222FE832EC45E75FE3DE
:101940000E94F2246B017C012DEE3EE245E652E45A
:101950006B8D7C8D8D8D9E8D0E94F22420E137ED64
:1019600043E25DE30E94F2249B01AC01C701B60192
:101970000E94E7226B017C012091640B3091650B82
:101980004091660B5091670B6B897C898D899E898C
:101990000E94E7222FE832EC45E75FE30E94F22441
:1019A0004B015C012DEE3EE245E652E46F89788DF5
:1019B000898D9A8D0E94F22420E137ED43E25DE3A8
:1019C0000E94F2249B01AC01C501B4010E94E722F0
:1019D0002F85388949895A8920936C0B30936D0B78
:1019E00040936E0B50936F0BC092680BD092690BB3
:1019F000E0926A0BF0926B0B6093640B7093650B33
:101A00008093660B9093670B4092600B5092610B32
:101A10006092620B7092630B8F8D98A1A9A1BAA1FD
:101A200080935C0B90935D0BA0935E0BB0935F0B68
:101A30002BA13CA14DA15EA12093580B3093590BD3
:101A400040935A0B50935B0B8FA198A5A9A5BAA5FB
:101A50008093540B9093550BA093560BB093570B58
:101A600020E030E0A901C301B2010E94E72418166A
:101A700024F0C301B201905802C0C301B201AA967A
:101A80000FB6F894DEBF0FBECDBFDF91CF91FF90B0
:101A9000EF90DF90CF90BF90AF909F908F907F900E
:101AA0006F905F904F90089513DEAB01BC0122E070
:101AB00030E08BE99EE00C94C722FF920F931F93B6
:101AC000CF93DF93F82E8B01EA0168E670E080E7A0
:101AD0009BE033D1E091700BF091710B0190F0819C
:101AE000E02D6F2D80E79BE01995019771F4AE0111
:101AF000B80180E79BE0A4D08C179D0749F461E012
:101B000080E79BE01BD190E005C08CEE9FEF02C008
:101B10008BEE9FEFDF91CF911F910F91FF90089572
:101B2000CF93DF931F92CDB7DEB7698341E050E0DA
:101B3000BE016F5F7F4FC1DF0F90DF91CF9108959E
:101B4000CF93DF9300D0CDB7DEB780E79BE0E2D044
:101B500041E050E0BE016D5F7F4F85E790E010DC13
:101B600026E040E052EC61E070E08BE99EE00E94EC
:101B7000F31F41E050E0BE016D5F7F4F8CE690E0C7
:101B8000FFDB60E08BE690E0CBDF75DC60E082E0BD
:101B90000E94761E41E050E06BE671E080E00E941A
:101BA000481B61E085E30E94761E0E9494010E941A
:101BB00006029E012F5F3F4F43E566E070E083E041
:101BC00090E076DB69817A814AE050E08BE99EE023
:101BD0000E94DA2169817A818EE090E0A6DA0F9086
:101BE0000F900F90DF91CF9108958091A00B90E01E
:101BF0002091A10B821B910908952091A10B809146
:101C0000A00B281750F4E22FF0E0EE55F44F80813E
:101C100090E02F5F2093A10B08958FEF9FEF089521
:101C2000E091A10B8091A00BE81730F4F0E0EE55A5
:101C3000F44F808190E008958FEF9FEF089508950D
:101C4000CF92DF92EF92FF920F931F93CF93DF9388
:101C50007C01CB018A0120917C0B222389F0EB01CE
:101C60006B01C40ED51ECC15DD0561F06991D7015D
:101C7000ED91FC910190F081E02DC7011995F3CF12
:101C8000642F8CD1C801DF91CF911F910F91FF90EC
:101C9000EF90DF90CF900895CF93DF931F92CDB751
:101CA000DEB7698320917C0B2223D1F020917D0B3C
:101CB000203240F021E030E0FC013383228380E0D9
:101CC00090E014C080917E0BE82FF0E0E158F44FD3
:101CD000998190838F5F80937E0B80937D0B04C0EE
:101CE00061E0CE0101965AD181E090E00F90DF9142
:101CF000CF910895FC011382128248EE53E060E018
:101D000070E0448355836683778385E292E0918314
:101D1000808308951092A10B1092A00B10927E0B5D
:101D200010927D0B7EC081E080937C0B60939F0BB3
:101D300010927E0B10927D0B0895F5CF0F93062F16
:101D400021E040917D0B6FE77BE080919F0BCFD02E
:101D500010927E0B10927D0B10927C0B0F910895C8
:101D60008F929F92AF92BF92CF92DF92EF92FF92AB
:101D70000F931F93CF93DF93EC01F62ED42E4801DF
:101D80005901EE2009F1CFDF1E2D143008F013E0C9
:101D90001150B8F0E881F98128E0129FB0011124B8
:101DA000A501940104C056954795379527956A95E6
:101DB000D2F7CA01B9010190F081E02DCE01199549
:101DC000E7CF60E0CE01BADF4D2D413208F040E2AE
:101DD0002C2D62EA7BE08F2D42D01092A10B8093D4
:101DE000A00BDF91CF911F910F91FF90EF90DF90AB
:101DF000CF90BF90AF909F908F900895CF92EF9229
:101E00000F931F93C22EE12C00E010E09801A8DF91
:101E10001F910F91EF90CF900895F0CF80E79BE056
:101E200069CF10922F0C81E080932D0C10922C0C16
:101E300061E084E10E94AF1E61E085E10E94AF1E77
:101E4000E9EBF0E080818E7F808380818D7F8083CD
:101E500088E48093B80085E48093BC000895413203
:101E600008F043C090912F0C9111FCCF91E090931A
:101E70002F0C20932D0C2FEF2093C20B1092070CE8
:101E8000240F2093060C90932E0C90912E0C880F0B
:101E9000892B80932E0C80912C0C813061F4109250
:101EA0002C0C80912E0C8093BB008091BC0083FD94
:101EB000F8CF85EC01C085EE8093BC0080912F0C9B
:101EC0008130E1F38091070C841710F44091070CE6
:101ED00028E03CE0FB01D9018A2F821B841718F40B
:101EE0008D918193F9CF842F089580E008950F9309
:101EF000413208F04AC090912F0C9111FCCF92E032
:101F000090932F0C00932D0C9FEF9093C20B109287
:101F1000070C4093060CFB0168E07CE0DB019A2F84
:101F2000961B941718F491919D93F9CF10922E0C53
:101F300090912E0C880F892B80932E0C80912C0C65
:101F4000813061F410922C0C80912E0C8093BB0098
:101F50008091BC0083FDF8CF85EC01C085EE8093B5
:101F6000BC00222321F080912F0C8230E1F380917C
:101F7000C20B8F3F61F08091C20B803251F0809193
:101F8000C20B803341F483E007C081E005C080E0EC
:101F900003C082E001C084E00F910895613298F49B
:101FA00020912F0C243089F46093E40BFC0186EE21
:101FB0009BE0DC012A2F281B261718F421912D9372
:101FC000F9CF80E0089581E0089582E0089585EDDD
:101FD0008093BC008091BC0084FDFCCF10922F0C3C
:101FE000089585EC8093BC0010922F0C08951F92E9
:101FF0000F920FB60F9211240BB60F922F933F93AF
:102000004F935F936F937F938F939F93AF93BF9300
:10201000EF93FF938091B900887F803609F49DC0CB
:1020200070F5883209F45CC090F4803109F455C031
:1020300038F4882309F4F3C0883009F44EC0F2C0A4
:10204000883109F44DC0803209F45EC0EBC08034A1
:1020500009F469C050F4803309F456C0883309F09C
:10206000E1C08093C20BBDDFDDC0803509F44FC0F5
:10207000883509F45DC0883409F0D4C0D2C08839ED
:1020800009F4C3C0A8F4883709F467C038F4883667
:1020900009F463C0803709F460C0C4C0883809F40B
:1020A000B4C0803909F45FC0803809F0BBC05BC0A0
:1020B000803B09F482C038F4803A09F466C0883A5B
:1020C00009F47BC0AFC0803C09F4A3C0883C09F48C
:1020D000A0C0883B09F486C0A5C080912E0C10C01A
:1020E0009091070C8091060C981770F5E091070C01
:1020F00081E08E0F8093070CF0E0E85FF34F808162
:102100008093BB0085EC82C08093C20B8AC0E091B3
:10211000070C81E08E0F8093070C8091BB00F0E0EC
:10212000E85FF34F80839091070C8091060C6AC0A2
:10213000E091070C81E08E0F8093070C8091BB002B
:10214000F0E0E85FF34F808380912D0C811169C02E
:1021500081E080932C0C84EA5DC083E080932F0C97
:102160001092C30BCFCF8091C30B803208F04DC0CB
:10217000E091C30B81E08E0F8093C30B8091BB0075
:10218000F0E0EC53F44F8083BDCF2BDF8091C30B85
:10219000803230F4E091C30BF0E0EC53F44F108246
:1021A0006091C30B70E0E091280CF091290C84EC55
:1021B0009BE019951092C30B35C084E080932F0CDF
:1021C0001092E50B1092E40BE0912A0CF0912B0C8D
:1021D00019958091E40B811105C081E08093E40B97
:1021E0001092E60BE091E50B81E08E0F8093E50BFA
:1021F000F0E0EA51F44F80818093BB009091E50BB1
:102200008091E40B981708F47DCF85E88093BC009B
:1022100009C085EC8093BC0010922F0C03C0109273
:10222000C20BD5DEFF91EF91BF91AF919F918F913E
:102230007F916F915F914F913F912F910F900BBEC6
:102240000F900FBE0F901F9018951092310C1092A6
:10225000300C1092330C1092320C08951092350C01
:102260001092340C1092370C1092360C0895CF93C4
:10227000DF931F92CDB7DEB76983DC01ED91FC914E
:102280000280F381E02D41E050E0BE016F5F7F4F9F
:1022900019950F90DF91CF910895CF93DF93EC01C3
:1022A000898D9A8D009751F0FC01138212821FD5FF
:1022B000E98DFA8D22813381232B31F081E090E08A
:1022C0009B838A8380E090E0DF91CF910895FC01A9
:1022D000818D928D009709F0C5C40895CF93DF9347
:1022E0001F92CDB7DEB741E050E0BE016F5F7F4F78
:1022F00019D3019719F4898190E002C08FEF9FEF05
:102300000F90DF91CF910895FC01818D928D009700
:1023100009F0E4CF8FEF9FEF08950F931F93CF93B2
:10232000DF938C01FC01818D928D0097A9F0D6DF9F
:10233000EC018F3FFFEF9F0791F0F801818D928DA7
:10234000FC014285538564857585415051096109B9
:102350007109EDD3CE0105C080E090E002C08FEF9F
:102360009FEFDF91CF911F910F910895FC01138290
:10237000128248EE53E060E070E044835583668348
:10238000778385E392E091838083128E118E148689
:102390000895DC015996ED91FC915A97309729F0F8
:1023A000628573858485958508956FEF7FEFCB01F6
:1023B0000895DC015996ED91FC915A97309729F0D8
:1023C0006389748985899689089560E070E0CB01FE
:1023D0000895CF92DF92EF92FF92CF93DF93EC01BB
:1023E000898D9A8D892BC9F0CE01E3DF6B017C01C9
:1023F000CE01CFDFA7019601261B370B480B590BE7
:10240000DA01C901811530E89307A105B10538F05B
:102410008FEF9FE7A0E0B0E002C080E090E0DF91A6
:10242000CF91FF90EF90DF90CF90089510923D0CE8
:1024300010923E0C1092410C1092430C82E090E0FE
:10244000A0E0B0E08093440C9093450CA093460C20
:10245000B093470C10925B0C1092650C1092640CB8
:1024600085E492E09093630C8093620C1092670C69
:1024700008959FB7F8942091910E80918F0E21308E
:1024800019F48DBB9FBF08958FBF08952091910EC1
:10249000222399F03FB7F8942091910E213059F4FE
:1024A0002DB320938F0E4DB32091900E20952423B1
:1024B0002DBB3FBF02C030938F0E8CBD9DBD0895D4
:1024C0008EBD00000DB407FEFDCF8EB508958FEFD1
:1024D000F7CF61E0FC0184810E94AF1E8091810CE6
:1024E000882331F01092810C8091910E8111C1CF1F
:1024F0000895CF93DF93EC018091810C811108C086
:1025000081E08093810C8091820C9091830CBEDFDE
:1025100060E08C81DF91CF910C94AF1ECF93DF935D
:10252000EC018E81882379F08F8198859C012F5F43
:102530003F4F38872F838230924010F4C8DFF4CFAA
:10254000CE01C7DF1E82DF91CF9108950F931F93B5
:10255000CF93DF93EB010E945B1D8B01B8DF8F3FB0
:1025600049F00E945B1D601B710B6C177D07B0F377
:1025700080E001C081E0DF91CF911F910F9108951C
:10258000CF92DF92FF920F931F93CF93DF9300D0F0
:102590001F92CDB7DEB76C01F62E29833A834B83A9
:1025A0005C83BCDFC601A5DF6CE271E0C601CEDF53
:1025B0008F2D806485DF08E110E05C814B813A81DA
:1025C0002981DA01C901002E04C0B695A795979517
:1025D00087950A94D2F729833A834B835C8370DF13
:1025E0000850110929813A814B815C81083F8FEFA6
:1025F000180739F7FF2029F0E8E0FE1621F08FEFE9
:1026000003C085E901C087E85BDF10E060DFF60109
:10261000828787FF04C01F3F11F01F5FF7CF0F9025
:102620000F900F900F90DF91CF911F910F91FF901E
:10263000DF90CF9008950F931F93CF93DF93EC011A
:102640000E945B1D8B0143DF8A878F3F49F40E9404
:102650005B1D601B710B6D327140A8F38FE003C0EE
:102660008E3F31F08DE08D83CE0133DF80E001C0FD
:1026700081E0DF91CF911F910F910895CF92DF926A
:10268000EF92FF920F931F93CF93DF93EC016901B9
:102690000115110509F45DC0C801820F931F813037
:1026A000924008F058C08E81882371F0888199810A
:1026B000AA81BB81481759076A077B0729F48F81D4
:1026C0009885C816D90600F5488359836A837B83A9
:1026D0008B85833039F039E0440F551F661F771F13
:1026E0003A95D1F79A01AB0161E1CE0149DF882328
:1026F00019F083E08D832FC0CE019DDF882359F12F
:1027000018861F8281E08E838F8198858C159D05A8
:1027100038F4DDDE8F819885019698878F83F4CF1A
:102720006701E00EF11ECE14DF0429F0D0DEF601C1
:1027300081936F01F8CF8F819885800F911F9887C3
:102740008F832985222319F08115924010F0CE0144
:10275000E5DE81E003C0CE01BCDE80E0DF91CF91F9
:102760001F910F91FF90EF90DF90CF900895EF921F
:10277000FF920F931F93790100E012E020E030E018
:102780007DDF1F910F91FF90EF900895CF92DF9220
:10279000EF92FF920F931F93CF93DF931F921F929D
:1027A000CDB7DEB78C01862F49835A8389DE4981F4
:1027B000C42E5A81D52EE12CF12CF60181916F01A6
:1027C0007FDEFFEFEF1AFF0AE11482E0F806A9F7B7
:1027D0008FEF76DE8FEF74DE7ADEF80182878F71FD
:1027E000853031F081E18583C80173DE80E001C06E
:1027F00081E00F900F90DF91CF911F910F91FF908B
:10280000EF90DF90CF9008950F931F93CF93DF93B6
:10281000EC018901411551056105710511F482E151
:102820002DC08B85833039F089E0440F551F661F1A
:10283000771F8A95D1F79A01AB0168E1CE01A0DE3E
:10284000882311F084E01AC0A8016EEFCE019EDF4C
:102850008823A9F068E572E0CE0178DE811102C01C
:1028600085E10CC020E030E0A9016DE0CE0188DEFA
:10287000811103C02CDE882331F084E18D83CE01E9
:1028800028DE80E003C0CE0124DE81E0DF91CF911D
:102890001F910F91089580E58093820C1092830C14
:1028A0000895CF93DF93EC019C012A5F3F4F41E0F5
:1028B00050E060E070E08B8D9C8D56D58823A1F0B0
:1028C0004F89588D698D7A8D452B462B472B71F496
:1028D0004E815F81688579854F8B588F698F7A8F9C
:1028E0008C8180688C8302C080E001C081E0DF9130
:1028F000CF910895CF93DF93EC01462F6E857F85AE
:1029000088899989D5D3882341F08A8920E2829FDA
:10291000C00111248357934F02C080E090E0DF9103
:10292000CF9108952F923F924F925F926F927F9234
:102930008F929F92AF92BF92CF92DF92EF92FF92CF
:102940000F931F93CF93DF93EC016B015A018D819D
:10295000811103C08FEF9FEFD7C08C8180FFFACF2A
:102960004B895C896D897E898A859B85AC85BD850F
:102970002501612C712C8A019B01081B190B2A0B64
:102980003B0B041515052605370518F45A01A81A3E
:10299000B90A25011E0126E0220E311C4114510402
:1029A00009F47AC04A855B856C857D854A0181E0A2
:1029B0009822ED818A019B01F9E0369527951795BC
:1029C0000795FA95D1F78B8D9C8DE23051F4FC017F
:1029D000628D738D848D958D600F711F821F931F83
:1029E0003DC0FC0174807A94702281149104C1F47A
:1029F000711016C0452B462B472B49F48F89988DB3
:102A0000A98DBA8D8E839F83A887B98709C04E810F
:102A10005F8168857985910184D3882309F49ACFF1
:102A2000EB8DFC8D6E817F8188859985625071095F
:102A300081099109058404C0660F771F881F991FBB
:102A40000A94D2F70685178520893189600F711F96
:102A5000821F931F670D711D811D911D20E032E0C3
:102A60002819390932012415350508F439012C815A
:102A700026FD04C06114F2E07F0699F5009107027B
:102A8000109108022091090230910A026017710723
:102A90008207930719F425C0C50136C0760183016A
:102AA0009401AB01BC0180918B0C90918C0CE6DD04
:102AB000882309F44FCFC60CD71C04C0E81BF90BC0
:102AC000CE0EDF1E8A859B85AC85BD85860D971D44
:102AD000A11DB11D8A879B87AC87BD874618570803
:102AE0005DCF40E0E5D2882309F434CFC401835799
:102AF000934FD6019C01260D371DFC01E217F30709
:102B0000E9F241914D93FACFDF91CF911F910F914F
:102B1000FF90EF90DF90CF90BF90AF909F908F90FD
:102B20007F906F905F904F903F902F9008954F92BD
:102B30005F926F927F92AF92BF92CF92DF92EF92AD
:102B4000FF920F931F93CF93DF93EC016A017B01F8
:102B50002D81222309F456C08B899C89AD89BE89B9
:102B600084179507A607B70708F44CC04DC08A859F
:102B70009B85AC85BD85EB8DFC8DE585F0E03996B8
:102B8000AC01BD0141505109610971090E2E04C00B
:102B900076956795579547950A94D2F797018601E0
:102BA000015011092109310904C03695279517955F
:102BB0000795EA95D2F70417150726073707A8F5F2
:102BC0008F89988DA98DBA8D8E839F83A887B987A9
:102BD000280139015E0186E0A80EB11C41145104A0
:102BE0006104710459F14E815F8168857985950191
:102BF0008B8D9C8D96D291E0491A5108610871081D
:102C00008111ECCF80E01FC02230C1F0C114D1048B
:102C1000E104F10409F0ABCF1E821F8218861986E9
:102C20001A861B861C861D860DC0892B8A2B8B2B32
:102C300039F2041B150B260B370BCACFCA86DB866D
:102C4000EC86FD8681E0DF91CF911F910F91FF907F
:102C5000EF90DF90CF90BF90AF907F906F905F909C
:102C60004F9008950F931F93CF93DF93EC018D81C5
:102C70008823B9F18C8187FF2FC061E0CE013ADE55
:102C80008C01009771F18D81823048F44B895C8909
:102C90006D897E89F801448F558F668F778F4F89B4
:102CA000588D698D7A8DF801538F428F758B648BA7
:102CB000E091840CF091850C309759F0B8016A5E70
:102CC0007F4FC80148961995F801808D918D938B9F
:102CD000828B8C818F778C83DF91CF911F910F91A5
:102CE000AEC180E0DF91CF911F910F9108952F9297
:102CF0003F924F925F926F927F928F929F92AF928C
:102D0000BF92CF92DF92EF92FF920F931F93CF93D8
:102D1000DF9300D01F921F92CDB7DEB78C017B01ED
:102D20003A01DC0115968C9115978130C1F4149607
:102D30008C9181FF14C082FF1AC0F8014389548925
:102D40006589768982859385A485B58584179507DD
:102D5000A607B70761F0C801EADE811108C081E06B
:102D600090E0F8019383828380E090E040C16301AA
:102D70007FC0D8015B968D919C915C97FC01F4819A
:102D8000F150B501A40129E07695679557954795CF
:102D90002A95D1F7F423FD8321E09222FF2309F441
:102DA00073C080E092E08819990956018C159D0541
:102DB00008F45C01D8015B96ED91FC915C97169646
:102DC0002D903D904D905C901997B2E02B1A3108F0
:102DD00041085108058404C0220C331C441C551CB6
:102DE0000A94D2F786859785A089B189280E391E65
:102DF0004A1E5B1EED812E0E311C411C511CA1147C
:102E0000F2E0BF0609F085C08091070290910802A8
:102E1000A0910902B0910A0282159305A405B50597
:102E200059F48FEF9FEFDC01809307029093080223
:102E3000A0930902B0930A029701B201A101809107
:102E40008B0C90918C0CE0DC882309F488CF9EEFEA
:102E5000F91ACA18DB08F80182859385A485B5851F
:102E60008A0D9B1DA11DB11D82879387A487B587FD
:102E7000D8011A968D909D90AD90BC901D97C1146D
:102E8000D10409F076CF86C08114910409F089CF6E
:102E900016964D915D916D917C9119974115510553
:102EA0006105710559F457968D919D910D90BC91D6
:102EB000A02D0097A105B10531F520C09E012F5F1F
:102EC0003F4F2FD1882309F450CF89819A81AB815C
:102ED000BC81F801238D348DF9012789203129F433
:102EE00048EF5FEF60E070E004C048EF5FEF6FEF26
:102EF0007FE084179507A607B70728F0C801D1DC43
:102F000081114FCF2CCFF80186839783A087B1879B
:102F100048CF8114910421F5D8011A964D915D9105
:102F20006D917C911D9753968D919D910D90BC91C3
:102F3000A02D481759076A077B0790F080D0882397
:102F400009F40DCF20920702309208024092090244
:102F500050920A0280918A0C816080938A0C07C08B
:102F600041E0C201B101A4D0882309F4F8CEC40124
:102F70008357934FD7019C012A0D3B1DFC01E2179B
:102F8000F30719F04D914193FACFE81BF90BEE0EC0
:102F9000FF1E5FCF53968D919D910D90BC91A02DFA
:102FA000F801248188159905AA05BB0538F4838AA0
:102FB000948AA58AB68A206824830CC08091840CE8
:102FC0009091850C892B31F06114710419F02068FF
:102FD000F8012483D80114968C9183FD02C0C301AB
:102FE00006C0C8013FDE882309F4B9CEF8CF0F90A0
:102FF0000F900F900F900F90DF91CF911F910F9135
:10300000FF90EF90DF90CF90BF90AF909F908F9008
:103010007F906F905F904F903F902F900895CF9347
:10302000DF931F92CDB7DEB7698341E050E0BE0168
:103030006F5F7F4F5CDE0F90DF91CF91089580919D
:103040008A0C882389F1409107025091080260910F
:10305000090270910A022DE83CE080918B0C90915E
:103060008C0CD2DB882311F14091860C5091870C97
:103070006091880C7091890C4115510561057105AD
:1030800089F02DE83CE080918B0C90918C0CBCDB9E
:10309000882361F01092860C1092870C1092880C95
:1030A0001092890C10928A0C81E0089580E00895B6
:1030B000CF92DF92EF92FF92CF936B017C01C42FEE
:1030C0008091070290910802A0910902B0910A0232
:1030D0008C159D05AE05BF05C1F0B1DF811102C0A1
:1030E00080E019C02DE83CE0B701A60180918B0C6F
:1030F00090918C0C3CDB882399F3C0920702D0920C
:103100000802E0920902F0920A0280918A0C8C2B4C
:1031100080938A0C81E0CF91FF90EF90DF90CF9069
:1031200008958F929F92AF92BF92CF92DF92EF92CB
:10313000FF920F931F93CF93DF938C016A017B0162
:10314000E901FC0181859285A385B4850196A11DC5
:10315000B11D84179507A607B70710F480E057C084
:10316000F80143895489658976898789803129F4F2
:10317000BB27AF2D9E2D8D2D09C0D701C60127E09D
:10318000B695A795979587952A95D1F74C015D013E
:10319000840E951EA61EB71EC501B40180900702BD
:1031A00090900802A0900902B0900A026815790573
:1031B0008A059B0589F4F8018789803191F4DD2423
:1031C000EE24FF24F601EE0FFF1FE357F34F80813B
:1031D0009181A0E0B0E016C040E06ADF8111EBCF42
:1031E000BDCFE894C7F8DD24EE24FF24F601EE0FEE
:1031F000FF1FEE0FFF1FE357F34F80819181A281E4
:10320000B381BF7088839983AA83BB8381E0DF91F8
:10321000CF911F910F91FF90EF90DF90CF90BF90D3
:10322000AF909F908F9008954F925F926F927F9290
:103230008F929F92AF92BF92CF92DF92EF92FF92C6
:103240000F931F93CF93DF93EC016A017B01280159
:103250003901423051056105710508F473C0498593
:103260005A856B857C854F5F5F4F6F4F7F4F4C1545
:103270005D056E057F0508F465C08B889C88AD8868
:10328000BE888F89803129F477276F2D5E2D4D2DD3
:1032900009C0B701A601E7E0769567955795479570
:1032A000EA95D1F7840E951EA61EB71E409107021F
:1032B000509108026091090270910A0284169506E5
:1032C000A606B70671F48F89803191F4DD24EE24CF
:1032D000FF24F601EE0FFF1FE357F34F51824082A8
:1032E00017C040E0C501B401E3DE8111ECCF2AC074
:1032F000E894C7F8DD24EE24FF24F601EE0FFF1F4B
:10330000EE0FFF1FE357F34F4082518262827382B8
:1033100080918A0C816080938A0C8A89823080F047
:103320008D819E81AF81B885880D991DAA1DBB1D19
:103330008093860C9093870CA093880CB093890C93
:1033400081E001C080E0DF91CF911F910F91FF904C
:10335000EF90DF90CF90BF90AF909F908F907F9035
:103360006F905F904F9008952F923F924F925F928F
:103370006F927F929F92AF92BF92CF92DF92EF9225
:10338000FF920F931F93CF93DF93CDB7DEB7609774
:103390000FB6F894DEBF0FBECDBF5C014D875E87D0
:1033A0006F87788B1901D9014D905D906D907C905D
:1033B000411451046104710431F0BFEF4B1A5B0AF0
:1033C0006B0A7B0A10C0FC014080518062807380D0
:1033D000992493940D851E852F8538890130110518
:1033E0002105310509F0912CD50119962D913D91BA
:1033F0004D915C911C972F5F3F4F4F4F5F4F298737
:103400003A874B875C87730162011D821E821F828F
:103410001886F50181859285A385B4850D811E816D
:103420002F813885081719072A073B0708F054C071
:1034300029853A854B855C852C153D054E055F0534
:1034400050F4A2E0CA2ED12CE12CF12CB2E04B2E8C
:10345000512C612C712C9E012F5F3F4FB701A601AB
:10346000C5015FDE8823C1F149815A816B817C816E
:10347000D701C6010196A11DB11D452B462B472B37
:1034800019F02C013D010FC0AC01BD0144195509D3
:10349000660977090D851E852F85388940175107E4
:1034A0006207730779F02D813E814F8158852F5F28
:1034B0003F4F4F4F5F4F2D833E834F8358876C01A3
:1034C0007D01A7CF0FEF1FEF2FEF3FE0B701A60160
:1034D000C501AADE811117C080E03FC0D701C60137
:1034E0000197A109B1098D839E83AF83B8879701A6
:1034F0008601AC01BD01C50197DE882369F3CD804B
:10350000DE80EF80F8844C145D046E047F0430F399
:10351000D1014D915D916D917C91411551056105F0
:10352000710599F4F101408251826282738299207F
:1035300099F0FFEF4F1A5F0A6F0A7F0AD5014D928B
:103540005D926D927C92139707C093018201C50131
:103550006BDE8111E7CFC0CF81E060960FB6F894A3
:10356000DEBF0FBECDBFDF91CF911F910F91FF90B6
:10357000EF90DF90CF90BF90AF909F907F906F9033
:103580005F904F903F902F900895CF93DF93DC0191
:1035900070E0FB01E657FE4FE4911496EC9314970C
:1035A000842F90E0FC01E657FE4FE4911596EC93D2
:1035B000159760537E4FFB01C491D0E0CC0FDD1F07
:1035C000C05DDD4FFE014591549117965C934E937B
:1035D0001697FC01E053FE4F849190E0880F991FED
:1035E0008A5E9D4FFC014591549119965C934E93D0
:1035F0001897FB016491E62FF0E0EE0FFF1FE65BEA
:10360000FD4F859194911B969C938E931A972F5FF3
:103610003F4F49E3429FC001439F900D11248E38D4
:10362000FFE69F0710F08DE89FE61D969C938E9312
:103630001C97DF91CF9108951F920F920FB60F92B2
:1036400011240BB60F922F933F934F935F936F9379
:103650007F938F939F93AF93BF93EF93FF93E091EB
:103660008D0EF0918E0E1995FF91EF91BF91AF9154
:103670009F918F917F916F915F914F913F912F918A
:103680000F900BBE0F900FBE0F901F9018950895CE
:10369000883008F06DC0E82FF0E0EE0FFF1FE55F07
:1036A000FD4F7183608390E0FC013197E730F105B5
:1036B00090F5EE58FF4F0C94D525809169008C7FD2
:1036C000842B80936900E89A089580916900440FE3
:1036D000551F440F551F837F842B80936900E99AFF
:1036E00008958091690074E0440F551F7A95E1F7C1
:1036F0008F7C842B80936900EA9A089580916900F9
:1037000066E0440F551F6A95E1F78F73842B809311
:103710006900EB9A089580916A008C7F842B8093D6
:103720006A00EC9A089580916A00440F551F440F77
:10373000551F837F842B80936A00ED9A08958091B2
:103740006A0024E0440F551F2A95E1F78F7C842BF3
:1037500080936A00EE9A089580916A0096E0440F83
:10376000551F9A95E1F78F73842B80936A00EF9A27
:1037700008951F920F920FB60F9211240BB60F925D
:103780002F933F934F935F936F937F938F939F9369
:10379000AF93BF93EF93FF93E0910F02F09110026C
:1037A0001995FF91EF91BF91AF919F918F917F916B
:1037B0006F915F914F913F912F910F900BBE0F90A2
:1037C0000FBE0F901F9018951F920F920FB60F9279
:1037D00011240BB60F922F933F934F935F936F93E8
:1037E0007F938F939F93AF93BF93EF93FF93E0915A
:1037F0001102F09112021995FF91EF91BF91AF91D3
:103800009F918F917F916F915F914F913F912F91F8
:103810000F900BBE0F900FBE0F901F9018951F9228
:103820000F920FB60F9211240BB60F922F933F9366
:103830004F935F936F937F938F939F93AF93BF93B8
:10384000EF93FF93E0911302F09114021995FF9109
:10385000EF91BF91AF919F918F917F916F915F9108
:103860004F913F912F910F900BBE0F900FBE0F9075
:103870001F9018951F920F920FB60F9211240BB63E
:103880000F922F933F934F935F936F937F938F93F9
:103890009F93AF93BF93EF93FF93E0911502F09145
:1038A00016021995FF91EF91BF91AF919F918F9162
:1038B0007F916F915F914F913F912F910F900BBE30
:1038C0000F900FBE0F901F9018951F920F920FB67A
:1038D0000F9211240BB60F922F933F934F935F9348
:1038E0006F937F938F939F93AF93BF93EF93FF93C8
:1038F000E0910B02F0910C021995FF91EF91BF91AD
:10390000AF919F918F917F916F915F914F913F9177
:103910002F910F900BBE0F900FBE0F901F90189518
:103920001F920F920FB60F9211240BB60F922F9386
:103930003F934F935F936F937F938F939F93AF9337
:10394000BF93EF93FF93E0910D02F0910E02199552
:10395000FF91EF91BF91AF919F918F917F916F9167
:103960005F914F913F912F910F900BBE0F900FBE23
:103970000F901F9018951F920F920FB60F9211245F
:103980000BB60F922F933F934F935F936F937F9359
:103990008F939F93AF93BF93EF93FF93E0911702A1
:1039A000F09118021995FF91EF91BF91AF919F91FE
:1039B0008F917F916F915F914F913F912F910F90D8
:1039C0000BBE0F900FBE0F901F9018951F920F9275
:1039D0000FB60F9211240BB60F922F933F934F9374
:1039E0005F936F937F938F939F93AF93BF93EF9367
:1039F000FF93E0911902F0911A021995FF91EF914E
:103A0000BF91AF919F918F917F916F915F914F91F6
:103A10003F912F910F900BBE0F900FBE0F901F90F4
:103A200018951F920F920FB60F9211242F933F9368
:103A30008F939F93AF93BF938091930E9091940E29
:103A4000A091950EB091960E3091920E23E0230F27
:103A50002D3720F40196A11DB11D05C026E8230FC6
:103A60000296A11DB11D2093920E8093930E909308
:103A7000940EA093950EB093960E8091970E909110
:103A8000980EA091990EB0919A0E0196A11DB11DAC
:103A90008093970E9093980EA093990EB0939A0EE0
:103AA000BF91AF919F918F913F912F910F900FBE3A
:103AB0000F901F9018952FB7F8946091930E709106
:103AC000940E8091950E9091960E2FBF08953FB75A
:103AD000F8948091970E9091980EA091990EB091C4
:103AE0009A0E26B5A89B05C02F3F19F00196A11D7F
:103AF000B11D3FBF6627782F892F9A2F620F711D46
:103B0000811D911D42E0660F771F881F991F4A95FE
:103B1000D1F708958F929F92AF92BF92CF92DF928A
:103B2000EF92FF926B017C01D2DF4B015C01C1146B
:103B3000D104E104F104E1F048D5C9DF681979093D
:103B40008A099B09683E73408105910580F321E055
:103B5000C21AD108E108F10888EE880E83E0981EA9
:103B6000A11CB11CC114D104E104F10431F7DFCF71
:103B7000FF90EF90DF90CF90BF90AF909F908F908D
:103B80000895789484B5826084BD84B5816084BDD5
:103B900085B5826085BD85B5816085BDEEE6F0E0C6
:103BA000808181608083E1E8F0E010828081826022
:103BB0008083808181608083E0E8F0E080818160A3
:103BC0008083E1EBF0E0808184608083E0EBF0E0D3
:103BD000808181608083E1E9F0E080818260808380
:103BE000808181608083E0E9F0E080818160808372
:103BF000E1EAF0E08081826080838081816080835F
:103C0000E0EAF0E0808181608083E1E2F1E08081A0
:103C100082608083808181608083E0E2F1E0808146
:103C200081608083EAE7F0E0808184608083808126
:103C300082608083808181608083808180688083CE
:103C40001092C100089590E0FC013197E231F10536
:103C500008F04BC0E758FF4FA8C7809180008F77CE
:103C600003C0809180008F7D8093800008958091B3
:103C70008000877FF9CF84B58F7702C084B58F7DB0
:103C800084BD08958091B0008F7703C08091B0000B
:103C90008F7D8093B0000895809190008F7707C04A
:103CA000809190008F7D03C080919000877F8093EA
:103CB000900008958091A0008F7707C08091A000A8
:103CC0008F7D03C08091A000877F8093A00008951E
:103CD000809120018F7707C0809120018F7D03C0E4
:103CE00080912001877F809320010895CF93DF93F7
:103CF00090E0FC01E657FE4F2491FC01E053FE4F9B
:103D00008491882349F190E0880F991FFC01E65BBC
:103D1000FD4FA591B491805D9D4FFC01C591D4915B
:103D20009FB7611108C0F8948C91209582238C93E1
:103D3000888182230AC0623051F4F8948C91322F2A
:103D4000309583238C938881822B888304C0F894D8
:103D50008C91822B8C939FBFDF91CF9108950F930D
:103D60001F93CF93DF931F92CDB7DEB7282F30E09C
:103D7000F901EC5BFE4F8491F901E657FE4F149177
:103D8000F901E053FE4F04910023C1F0882319F09C
:103D9000698359DF6981E02FF0E0EE0FFF1FE05DDE
:103DA000FD4FA591B4919FB7F8948C91611103C018
:103DB0001095812301C0812B8C939FBF0F90DF91C1
:103DC000CF911F910F910895FC01818D228D90E07C
:103DD000805C9F4F821B91098F7399270895FC0186
:103DE000918D828D981731F0828DE80FF11D858DB0
:103DF00090E008958FEF9FEF0895FC01918D828DE3
:103E0000981761F0828DDF01A80FB11D5D968C912E
:103E1000928D9F5F9F73928F90E008958FEF9FEF39
:103E2000089582EB90E2892B39F080E090E0892BB5
:103E300019F098D1811125C080E090E0892B41F0E4
:103E400080E090E0892B21F00E94000081111CC0CD
:103E500080E090E0892B41F080E090E0892B21F018
:103E60000E940000811113C080E090E0892BA1F036
:103E700080E090E0892B81F00E94000081110AC04F
:103E800008950E940000D8CF0E940000E1CF0E9458
:103E90000000EACF0C9400000895FC01848DDF013E
:103EA000A80FB11DA35ABF4F2C91848D90E00196AD
:103EB0008F739927848FA689B7892C93A089B1899C
:103EC0008C9180648C93938D848D981306C00288A6
:103ED000F389E02D80818F7D80830895CF93DF93D8
:103EE000EC01888D8823C1F0EA89FB89808185FDFA
:103EF00005C0A889B9898C9186FD0EC00FB607FC54
:103F0000F5CF808185FFF2CFA889B9898C9185FF93
:103F1000EDCFCE01C2DFE8CFDF91CF910895CF92F0
:103F2000DF92FF920F931F93CF93DF931F92CDB732
:103F3000DEB76C0181E0D60158968C9358975B965A
:103F40009C915B975C968C915C97981307C05096F8
:103F5000ED91FC915197808185FD2DC0F601038D77
:103F600010E00F5F1F4F0F731127F02EF601848DA5
:103F7000F81210C00FB607FCF9CFD6015096ED919C
:103F8000FC915197808185FFF1CFC601698385DF60
:103F90006981ECCF838DE80FF11DE35AFF4F6083F9
:103FA000D6015B960C935B975296ED91FC915397DB
:103FB000808180620CC0D6015696ED91FC91579796
:103FC00060835096ED91FC9151978081806480834D
:103FD00081E090E00F90DF91CF911F910F91FF90C2
:103FE000DF90CF900895BF92CF92DF92EF92FF9231
:103FF000CF93DF93EC016A017B01B22EE889F98946
:1040000082E08083411581EE58076105710599F0C2
:1040100060E079E08DE390E0A7019601A4D52150FE
:10402000310941095109569547953795279521152D
:1040300080E1380790F0E889F989108260E874E837
:104040008EE190E0A70196018ED5215031094109FA
:1040500051095695479537952795EC85FD85308311
:10406000EE85FF852083188EEC89FD89B082EA8970
:10407000FB89808180618083EA89FB8980818860F7
:104080008083EA89FB89808180688083EA89FB8953
:1040900080818F7D8083DF91CF91FF90EF90DF90C3
:1040A000CF90BF9008951F920F920FB60F921124D8
:1040B0000BB60F922F938F939F93EF93FF93E09103
:1040C000AB0EF091AC0E8081E091B10EF091B20E8A
:1040D00082FD12C090818091B40E8F5F8F7320910A
:1040E000B50E821751F0E091B40EF0E0E556F14FB5
:1040F000958F8093B40E01C08081FF91EF919F91C5
:104100008F912F910F900BBE0F900FBE0F901F90AD
:1041100018951F920F920FB60F9211240BB60F92A3
:104120002F933F934F935F936F937F938F939F93BF
:10413000AF93BF93EF93FF938BE99EE0AEDEFF91C9
:10414000EF91BF91AF919F918F917F916F915F910F
:104150004F913F912F910F900BBE0F900FBE0F907C
:104160001F9018958BE99EE02FDE21E0892B09F442
:1041700020E0822F089510929E0E10929D0E88EEE0
:1041800093E0A0E0B0E080939F0E9093A00EA093E8
:10419000A10EB093A20E8DE492E090939C0E8093BA
:1041A0009B0E85EC90E09093A80E8093A70E84EC74
:1041B00090E09093AA0E8093A90E80EC90E09093EB
:1041C000AC0E8093AB0E81EC90E09093AE0E80939A
:1041D000AD0E82EC90E09093B00E8093AF0E86EC23
:1041E00090E09093B20E8093B10E1092B40E1092A4
:1041F000B50E1092B60E1092B70E0895CF92DF92C0
:10420000EF92FF920F931F93CF93DF937C016A018C
:10421000EB0100E010E00C151D0571F06991D7016C
:10422000ED91FC910190F081E02DC7011995892B4A
:1042300019F00F5F1F4FEFCFC801DF91CF911F9192
:104240000F91FF90EF90DF90CF9008956115710569
:1042500081F0DB010D900020E9F7AD0141505109DB
:10426000461B570BDC01ED91FC910280F381E02DA0
:10427000199480E090E00895DC01ED91FC910190AB
:10428000F081E02D199469E572E0E0CF8F929F9262
:10429000AF92BF92DF92EF92FF920F931F93CF9353
:1042A000DF93CDB7DEB7A1970FB6F894DEBF0FBE90
:1042B000CDBF7C01F42FD52ECB0119A2223008F4FA
:1042C0002AE08E010F5D1F4F822E912CA12CB12C64
:1042D0006F2F7D2DA501940146D4F22FD32ECA0154
:1042E000015011096A3014F4E0E301C0E7E3E60F7E
:1042F000D801EC93232B242B252B51F7B801C701B0
:10430000A5DFA1960FB6F894DEBF0FBECDBFDF913B
:10431000CF911F910F91FF90EF90DF90BF90AF90E2
:104320009F908F900895CF92DF92EF92FF920F931C
:104330001F93CF93DF93EC016A017B0121153105B7
:1043400079F4E881F9810190F081E02D642FDF910B
:10435000CF911F910F91FF90EF90DF90CF90199424
:104360002A303105D9F477FF18C06DE285DF8C0162
:1043700044275527BA014C195D096E097F092AE0C7
:10438000CE0184DF800F911FDF91CF911F910F919C
:10439000FF90EF90DF90CF9008952AE0B701A6013B
:1043A000CE01DF91CF911F910F91FF90EF90DF90A1
:1043B000CF906CCF0F931F93CF93DF93EC019A01B3
:1043C000AB01662757FD6095762FADDF8C01CE01DE
:1043D0005ADF800F911FDF91CF911F910F910895A8
:1043E0004F925F926F927F928F929F92AF92BF9205
:1043F000CF92DF92EF92FF920F931F93CF93DF93B1
:10440000EC016A017B01B22E9A01AB01C701B60132
:1044100091D3882319F06CE572E024C0260137019E
:10442000E89477F82FEF3FEF4FE75FE7C301B20162
:1044300081D381110CC02FEF3FEF4FE75FE7C3013E
:10444000B20151D118161CF460E672E00BC02FEFD8
:104450003FEF4FE75FE4C701B601B9D21816A4F4E5
:1044600064E672E0CE01DF91CF911F910F91FF9032
:10447000EF90DF90CF90BF90AF909F908F907F9004
:104480006F905F904F90E2CE2FEF3FEF4FE75FECE2
:10449000C701B60128D187FDE3CF20E030E0A901B4
:1044A000C701B60120D187FF09C06DE2CE01E4DE6D
:1044B0008C01F7FAF094F7F8F09402C000E010E0F5
:1044C000A12C60E070E080E09FE3AB1439F020E0C5
:1044D00030E040E251E40BD1A394F7CF9B01AC0153
:1044E000C701B60174D06B017C016ED12B013C0178
:1044F00097D19B01AC01C701B60168D06B017C016B
:104500002AE0B301A201CE01C1DE080F191FBB20B2
:1045100031F068E672E0CE0199DE080F191F7B2C9E
:10452000772019F120E030E040E251E4C701B60104
:1045300059D26B017C0143D14B01AA2497FCA09472
:10454000BA2C2AE030E0B501A401CE01ECDE080F60
:10455000191FC501B40166D19B01AC01C701B601A9
:1045600035D06B017C017A94DBCFC801DF91CF910C
:104570001F910F91FF90EF90DF90CF90BF90AF9081
:104580009F908F907F906F905F904F9008950F93C2
:104590001F93CF93DF93EC0123DF8C01CE0173DEF9
:1045A000800F911FDF91CF911F910F910895089572
:1045B000E8DAFDDF0E94A00DC1E1DFE10E94540DA9
:1045C0002097E1F32EDCFACFFAC208955058BB27AA
:1045D000AA270ED0C2C1B3D130F0B8D120F031F447
:1045E0009F3F11F41EF483C10EF4E095E7FB79C1FF
:1045F000E92FC4D180F3BA176207730784079507C0
:1046000018F071F49EF5DCC10EF4E0950B2EBA2F74
:10461000A02D0B01B90190010C01CA01A0011124C8
:10462000FF27591B99F0593F50F4503E68F11A1674
:10463000F040A22F232F342F4427585FF3CF469505
:1046400037952795A795F0405395C9F77EF41F1627
:10465000BA0B620B730B840BBAF09150A1F0FF0FF1
:10466000BB1F661F771F881FC2F70EC0BA0F621FDD
:10467000731F841F48F4879577956795B795F795CD
:104680009E3F08F0B3CF9395880F08F09927EE0F5F
:10469000979587950895DF93DD27B92FBF7740E879
:1046A0005FE31616170648075B0710F4D92F93D15E
:1046B0009F938F937F936F933AD2E6E1F1E01AD103
:1046C0004CD12F913F914F915F9198D1DD2349F0CB
:1046D0009058A2EA2AED3FE049EC5FE3D0785D27ED
:1046E00087DFDF913AC1D9D008F481E008950CD07A
:1046F00034C12CD140F023D130F021F45F3F19F0C8
:10470000F0C051115EC1F3C039D198F39923C9F3B8
:104710005523B1F3951B550BBB27AA2762177307C7
:10472000840738F09F5F5F4F220F331F441FAA1F7B
:10473000A9F333D00E2E3AF0E0E830D0915050403B
:10474000E695001CCAF729D0FE2F27D0660F771FE9
:10475000881FBB1F261737074807AB07B0E809F0CB
:10476000BB0B802DBF01FF2793585F4F2AF09E3F60
:10477000510568F0B6C025C15F3FECF3983EDCF30D
:10478000869577956795B795F7959F5FC9F7880FD9
:10479000911D9695879597F90895E1E0660F771F2B
:1047A000881FBB1F621773078407BA0720F0621BBC
:1047B000730B840BBA0BEE1F88F7E095089504D0B5
:1047C0006894B111FEC00895E1D088F09F5790F031
:1047D000B92F9927B751A0F0D1F0660F771F881F26
:1047E000991F1AF0BA95C9F712C0B13081F0E8D01C
:1047F000B1E00895E5C0672F782F8827B85F39F0BA
:10480000B93FCCF3869577956795B395D9F73EF484
:1048100090958095709561957F4F8F4F9F4F08952C
:10482000E89409C097FB3EF490958095709561954A
:104830007F4F8F4F9F4F9923A9F0F92F96E9BB2700
:104840009395F695879577956795B795F111F8CF7C
:10485000FAF4BB0F11F460FF1BC06F5F7F4F8F4FE7
:104860009F4F16C0882311F096E911C0772321F0DD
:104870009EE8872F762F05C0662371F096E8862F75
:1048800070E060E02AF09A95660F771F881FDAF7CC
:10489000880F9695879597F90895990F0008550FF9
:1048A000AA0BE0E8FEEF16161706E807F907C0F0B6
:1048B00012161306E407F50798F0621B730B840BBE
:1048C000950B39F40A2661F0232B242B252B21F498
:1048D00008950A2609F4A140A6958FEF811D811D38
:1048E000089597F99F6780E870E060E008959FEF72
:1048F00080EC0895DF93CF931F930F93FF92EF9275
:10490000DF927B018C01689405C0DA2EEF0176D02E
:10491000FE01E894A5912591359145915591AEF30D
:10492000EF0166DEFE019701A801DA9479F7DF90C6
:10493000EF90FF900F911F91CF91DF910895002488
:104940000A941616170618060906089500240A94F4
:1049500012161306140605060895092E0394000C7A
:1049600011F4882352F0BB0F40F4BF2B11F460FF09
:1049700004C06F5F7F4F8F4F9F4F089557FD905832
:10498000440F551F59F05F3F71F04795880F97FB13
:10499000991F61F09F3F79F08795089512161306CD
:1049A0001406551FF2CF4695F1DF08C016161706FC
:1049B0001806991FF1CF8695710561050894089531
:1049C000E894BB2766277727CB0197F9089565DF21
:1049D00008F48FEF08959B01AC0160E070E080E87F
:1049E0009FE385CE0BD0B9CFAADF28F0AFDF18F058
:1049F000952309F076CF7BCF1124E3CFBFDFA0F35F
:104A0000959FD1F3950F50E0551F629FF001729F63
:104A1000BB27F00DB11D639FAA27F00DB11DAA1F82
:104A2000649F6627B00DA11D661F829F2227B00DCF
:104A3000A11D621F739FB00DA11D621F839FA00D5A
:104A4000611D221F749F3327A00D611D231F849FAA
:104A5000600D211D822F762F6A2F11249F57504001
:104A60008AF0E1F088234AF0EE0FFF1FBB1F661F9C
:104A7000771F881F91505040A9F79E3F510570F055
:104A800030CF9FCF5F3FECF3983EDCF38695779570
:104A90006795B795F795E7959F5FC1F7FE2B880F50
:104AA000911D9695879597F9089511F40EF41FCFEF
:104AB00045C06CDFD0F39923D9F3CEF39F57550B44
:104AC00087FF4AD00024A0E640EA9001805856951E
:104AD000979528F4805C660F771F881F20F02617B3
:104AE0003707480730F4621B730B840B20293129E8
:104AF0004A2BA69517940794202531254A2758F765
:104B0000660F771F881F20F026173707480730F4F5
:104B1000620B730B840B200D311D411DA09581F795
:104B2000B901842F9158880F9695879508959B0118
:104B3000AC0158CFB2DE880B990B08959F3F31F03E
:104B4000915020F4879577956795B795880F911DBB
:104B50009695879597F9089591505040660F771F65
:104B6000881FD2F70895A1E21A2EAA1BBB1BFD01D4
:104B70000DC0AA1FBB1FEE1FFF1FA217B307E4073C
:104B8000F50720F0A21BB30BE40BF50B661F771F94
:104B9000881F991F1A9469F7609570958095909574
:104BA0009B01AC01BD01CF010895EE0FFF1F0590E1
:104BB000F491E02D19940790F691E02D1994CF937C
:104BC000DF938230910510F482E090E0E0913A0F9B
:104BD000F0913B0F20E030E0A0E0B0E0309739F1F9
:104BE0004081518148175907B8F04817590771F4A7
:104BF00082819381109729F013969C938E9312973C
:104C00002CC090933B0F80933A0F27C0211531059C
:104C100031F04217530718F0A901DB0101C0EF0181
:104C20009A01BD01DF010280F381E02DD7CF21156C
:104C30003105F9F0281B390B2430310580F48A81C5
:104C40009B816115710521F0FB019383828304C070
:104C500090933B0F80933A0FFE01329644C0FE01C1
:104C6000E20FF31F819391932250310939832883F6
:104C70003AC02091380F3091390F232B41F4209105
:104C80000202309103023093390F2093380F2091A4
:104C90000002309101022115310541F42DB73EB7D4
:104CA0004091040250910502241B350BE091380F0E
:104CB000F091390FE217F307A0F42E1B3F0B2817D2
:104CC000390778F0AC014E5F5F4F2417350748F085
:104CD0004E0F5F1F5093390F4093380F819391937C
:104CE00002C0E0E0F0E0CF01DF91CF910895CF93D3
:104CF000DF93009709F487C0FC0132971382128278
:104D0000C0913A0FD0913B0F209781F420813181DF
:104D1000280F391F8091380F9091390F8217930710
:104D200079F5F093390FE093380F6DC0DE0120E084
:104D300030E0AE17BF0750F412964D915C91139777
:104D40009D014115510509F1DA01F3CFB383A28327
:104D500040815181840F951F8A179B0771F48D91B3
:104D60009C911197840F951F0296918380831296D0
:104D70008D919C911397938382832115310529F49A
:104D8000F0933B0FE0933A0F3EC0D9011396FC938A
:104D9000EE9312974D915D91A40FB51FEA17FB0793
:104DA00079F480819181840F951F0296D901119623
:104DB0009C938E938281938113969C938E931297EA
:104DC000E0E0F0E08A819B81009719F0FE01EC01A0
:104DD000F9CFCE01029628813981820F931F20914D
:104DE000380F3091390F2817390769F4309729F4B3
:104DF00010923B0F10923A0F02C013821282D0938E
:104E0000390FC093380FDF91CF910895F894FFCFF9
:104E100000003C0F80004EFFFFFFFF471B471B4772
:104E20001B471B471B471B471B471B000000007FFE
:104E300001000000004C0E200EF50DFD0D100E1FA0
:104E40000E0000000037114D11E91184118D11671A
:104E500011000000000F18FE20000000008F1FFE50
:104E600020E41EFD1EEF1E6E1F0D0A006E616E0017
:0A4E7000696E66006F7666002E0082
:020000023000CC
:10E000000D9489F10D94B2F10D94B2F10D94B2F129
:10E010000D94B2F10D94B2F10D94B2F10D94B2F1F0
:10E020000D94B2F10D94B2F10D94B2F10D94B2F1E0
:10E030000D94B2F10D94B2F10D94B2F10D94B2F1D0
:10E040000D94B2F10D94B2F10D94B2F10D94B2F1C0
:10E050000D94B2F10D94B2F10D94B2F10D94B2F1B0
:10E060000D94B2F10D94B2F10D94B2F10D94B2F1A0
:10E070000D94B2F10D94B2F10D94B2F10D94B2F190
:10E080000D94B2F10D94B2F10D94B2F10D94B2F180
:10E090000D94B2F10D94B2F10D94B2F10D94B2F170
:10E0A0000D94B2F10D94B2F10D94B2F10D94B2F160
:10E0B0000D94B2F10D94B2F10D94B2F10D94B2F150
:10E0C0000D94B2F10D94B2F10D94B2F10D94B2F140
:10E0D0000D94B2F10D94B2F10D94B2F10D94B2F130
:10E0E0000D94B2F141546D656761323536300041AF
:10E0F000726475696E6F206578706C6F72657220DE
:10E1000073746B3530305632206279204D4C530099
:10E11000426F6F746C6F616465723E004875683F52
:10E1200000436F6D70696C6564206F6E203D200048
:10E130004350552054797065202020203D20005FF9
:10E140005F4156525F415243485F5F3D2000415658
:10E1500052204C696243205665723D20004743437C
:10E160002056657273696F6E203D20004350552024
:10E1700049442020202020203D20004C6F7720663D
:10E18000757365202020203D20004869676820665F
:10E190007573652020203D200045787420667573D6
:10E1A00065202020203D20004C6F636B2066757336
:10E1B000652020203D20004D617220203720323024
:10E1C000313300312E362E3800342E332E350056A2
:10E1D00023202020414444522020206F7020636F70
:10E1E00064652020202020696E73747275637469E1
:10E1F0006F6E2061646472202020496E74657272B3
:10E20000757074006E6F20766563746F7200726A49
:10E210006D702020006A6D70200057686174207056
:10E220006F72743A00506F7274206E6F7420737541
:10E2300070706F72746564004D7573742062652030
:10E2400061206C6574746572002000577269747483
:10E25000696E672045450052656164696E672045B7
:10E26000450045452065727220636E743D00504F35
:10E27000525400303D5A65726F2061646472003FF1
:10E280003D43505520737461747300403D454550C3
:10E29000524F4D207465737400423D426C696E6B41
:10E2A000204C454400453D44756D70204545505215
:10E2B0004F4D00463D44756D7020464C415348001B
:10E2C000483D48656C70004C3D4C69737420492F83
:10E2D0004F20506F72747300513D51756974005234
:10E2E0003D44756D702052414D00563D73686F7707
:10E2F00020696E7465727275707420566563746FF0
:10E30000727300593D506F727420626C696E6B00BD
:10E310002A0011241FBECFEFD1E2DEBFCDBF01E046
:10E320000CBF12E0A0E0B2E0EEE1FDEF03E00BBFB6
:10E3300002C007900D92A030B107D9F712E0A0E01B
:10E34000B2E001C01D92AE30B107E1F70F9460F367
:10E350000D948DFE01E20EBF0FEF0DBF11241FBE05
:10E360000D9460F30D9400F020E030E040ED57E0B4
:10E3700005C0FA013197F1F72F5F3F4F2817390792
:10E38000C0F308959C01260F311DC901A0E0B0E043
:10E390002F5F3F4FABBFFC018791882361F08093D3
:10E3A000C6008091C00086FFFCCF8091C0008064D1
:10E3B0008093C000EACF08958DE08093C6008091DD
:10E3C000C00086FFFCCF8091C00080648093C000B5
:10E3D0008AE08093C6008091C00086FFFCCF8091C8
:10E3E000C00080648093C00008950F94C2F10F9420
:10E3F000DCF10895FC019081992359F09093C600B7
:10E400008091C00086FFFCCF8091C0008064809323
:10E41000C0003196992379F70895282F982F929567
:10E420009F70892F805D8A3308F0895F8093C600D2
:10E430008091C00086FFFCCF8091C00080648093F3
:10E44000C000822F8F70982F905D9A3308F0995FEB
:10E450009093C6008091C00086FFFCCF8091C000E1
:10E4600080648093C00008959C01FB01853691056E
:10E470001CF46330710594F0C90164E670E00F94F8
:10E480002EFE605D7F4F6093C6008091C00086FFC6
:10E49000FCCF8091C00080648093C0002B30310598
:10E4A00014F43297B4F0C90164E670E00F942EFEC4
:10E4B0006AE070E00F942EFE605D7F4F6093C600AF
:10E4C0008091C00086FFFCCF8091C0008064809363
:10E4D000C000C9016AE070E00F942EFEC0968093E0
:10E4E000C6008091C00086FFFCCF8091C000806490
:10E4F0008093C00008951F93182F8EE692EE60E07F
:10E500000F94C2F11093C6008091C00086FFFCCF2B
:10E510008091C00080648093C0000F94DCF11F9153
:10E5200008952F923F924F925F926F927F928F92B7
:10E530009F92AF92BF92CF92DF92EF92FF920F9392
:10E540001F93DF93CF93CDB7DEB762970FB6F894E2
:10E55000DEBF0FBECDBF382E622ECA01DB015C01CB
:10E560006D01772420E2222E2E010894411C511CBB
:10E570008BC081E0A81680E0B80681E0C80680E084
:10E58000D80628F0C601AA27BB270F940DF2BB2797
:10E59000AD2D9C2D8B2D0F940DF28A2D0F940DF225
:10E5A0002092C6008091C00086FFFCCF8091C00001
:10E5B00080648093C0009DE29093C6008091C0006B
:10E5C00086FFFCCF8091C00080648093C0002092C1
:10E5D000C6008091C00086FFFCCF8091C00080649F
:10E5E0008093C00019828601750188249924A1E0D6
:10E5F0003A1651F03A1620F0B2E03B1661F409C029
:10E600000BBFF701779007C0C7010F9477FE782EF4
:10E6100002C0F7017080872D0F940DF22092C60082
:10E620008091C00086FFFCCF8091C0008064809301
:10E63000C000872D8052F401EF70F0708F3520F408
:10E64000E40DF51D708204C0E40DF51D8EE280839B
:10E650000894E11CF11C011D111D0894811C911CE2
:10E6600090E18916910409F0C2CF80E190E0A0E02A
:10E67000B0E0A80EB91ECA1EDB1E198AC2010F9493
:10E68000FAF10F94DCF16A94662009F072CF629679
:10E690000FB6F894DEBF0FBECDBFCF91DF911F91B3
:10E6A0000F91FF90EF90DF90CF90BF90AF909F9031
:10E6B0008F907F906F905F904F903F902F90089534
:10E6C0002F923F924F925F926F927F928F929F9282
:10E6D000AF92BF92CF92DF92EF92FF920F931F9370
:10E6E000DF93CF93CDB7DEB7CD53D1400FB6F894BB
:10E6F000DEBF0FBECDBF01E20EBF0FEF0DBF94B75F
:10E70000F894A89514BE80916000886180936000A1
:10E7100010926000789493FF05C0E0910002F091A0
:10E7200001021995279A2F9A8091C00082608093E8
:10E73000C00080E18093C40088E18093C1000000A4
:10E74000EE24FF24870144E0A42EB12CCC24DD2448
:10E7500024C0C5010197F1F70894E11CF11C011DCB
:10E76000111D21E2E2162EE4F20620E0020720E06D
:10E77000120718F031E0C32ED12CC801B70127ECE5
:10E780003BE140E050E00F9441FE611571058105C9
:10E79000910519F485B1805885B98091C00087FD35
:10E7A00003C0C114D104A9F2A6014F5F5F4FC25E3E
:10E7B000DE4F59834883CE51D140C25EDE4F8881FF
:10E7C0009981CE51D140019711F00D9410FEC05D9A
:10E7D000DE4F19821882C053D14060E0C15DDE4F28
:10E7E0001882CF52D14088249924C35DDE4F19820C
:10E7F0001882CD52D140C05EDE4F188219821A8233
:10E800001B82C052D140CE5CDE4F188219821A8220
:10E810001B82C253D140EE24FF2487010BBFF701B6
:10E8200007911691C45CDE4F19830883CC53D14005
:10E830000D940BFEC25EDE4F28813981CE51D1404E
:10E840002130310509F52091C600C25EDE4F1982E4
:10E850001882CE51D14022C02F5F3F4F4F4F5F4FA4
:10E86000213082E138078AE7480780E0580780F0C6
:10E87000C45CDE4FE881F981CC53D140EF5FFF4F9C
:10E8800019F0EE27FF27099420E030E040E050E047
:10E890008091C00087FFE0CF2091C600C35DDE4FAE
:10E8A00048815981CD52D1404F5F5F4FC35DDE4FEC
:10E8B00059834883CD52D140213209F063C64A3092
:10E8C000510508F05FC60894811C911C53E0851621
:10E8D000910409F059C600E010E018C081E280936D
:10E8E000C6008091C00086FFFCCF8091C00080648C
:10E8F0008093C0002F5F3F4F2931310579F70F9486
:10E90000DCF10F5F1F4F0530110519F020E030E0FA
:10E91000E5CF10920A0210920B0210920C02109294
:10E920000D02109206021092070210920802109235
:10E930000902109202021092030210920402109235
:10E9400005028FEE90EE60E00F94F5F180E191EE1C
:10E9500060E00F94C2F18091C00087FFFCCF9091DE
:10E96000C600903608F09F759032B8F09093C600BC
:10E970008091C00086FFFCCF8091C00080648093AE
:10E98000C000A0E2A093C6008091C00086FFFCCF2B
:10E990008091C00080648093C000983409F4D7C18E
:10E9A0009934B8F4923409F459C1933458F490333B
:10E9B00019F1903308F4E3C59F33A1F1903409F0C5
:10E9C000DEC5BDC0953409F470C1963409F0D7C5D1
:10E9D00098C1923509F42BC2933538F49C3409F46C
:10E9E000F5C1913509F0CBC518C2963509F445C279
:10E9F000993509F0C4C567C483E792EE62E00F94CD
:10EA0000F5F110920602109207021092080210927D
:10EA1000090210920A0210920B0210920C0210923C
:10EA20000D0213C18FE792EE62E00F94F5F18FEEC5
:10EA300090EE60E00F94F5F181E291EE60E00F94CA
:10EA4000C2F187EB91EE60E00F94F5F180E391EE77
:10EA500060E00F94C2F184EE90EE60E00F94F5F167
:10EA60008FE391EE60E00F94C2F186E090E061E008
:10EA700070E00F9434F20F94DCF18DE591EE60E0DC
:10EA80000F94C2F189EC91EE60E00F94F5F18EE401
:10EA900091EE60E00F94C2F183EC91EE60E00F9490
:10EAA000F5F18CE691EE60E00F94C2F18EE10F94E7
:10EAB0000DF288E90F940DF281E00F940DF20F949E
:10EAC000DCF18BE791EE60E00F94C2F119E0E0E039
:10EAD000F0E010935700E4918E2F0F940DF20F94F5
:10EAE000DCF18AE891EE60E00F94C2F1E3E0F0E03F
:10EAF00010935700E4918E2F0F940DF20F94DCF1D8
:10EB000089E991EE60E00F94C2F1E2E0F0E0109349
:10EB10005700E4918E2F0F940DF20F94DCF188EAE8
:10EB200091EE60E00F94C2F1E1E0F0E01093570045
:10EB30001491812F0F940DF20F94DCF107CF8BE825
:10EB400092EE62E00F94F5F18BE492EE60E00F94A8
:10EB5000F5F10F94DCF100E010E019C0C8016F2D51
:10EB60000F947FFEFF2031F489E492EE60E00F9471
:10EB7000C2F10BC0F092C6008091C00086FFFCCFAE
:10EB80008091C00080648093C0000F5F1F4FC80158
:10EB900081519F41A0E0B0E0ABBFFC01F790BAE229
:10EBA000FB1621F0E2E000301E07C1F60F94DCF105
:10EBB0000F94DCF187E592EE60E00F94F5F10F948D
:10EBC000DCF1CC24DD2400E010E01EC0C8010F946D
:10EBD00077FEF82E882331F489E492EE60E00F94FA
:10EBE000C2F10BC08093C6008091C00086FFFCCFAD
:10EBF0008091C00080648093C000FE1419F00894D6
:10EC0000C11CD11C0F5F1F4FC80181519F41A0E063
:10EC1000B0E0ABBFFC01E790FAE2EF1621F022E092
:10EC20000030120799F60F94DCF10F94DCF182E6C4
:10EC300092EE60E00F94C2F1C60161E070E00F94C3
:10EC400034F20F94DCF10F94DCF110920202109276
:10EC50000302109204021092050278CE89E992EE26
